S0150000424732325F62745F6364635F66732E733337FC
S21400600000800020759D0000719D0000719D0000BD
S214006010719D0000719D0000719D0000719D000043
S214006020719D0000719D0000719D0000719D000033
S214006030719D0000719D0000719D0000719D000023
S214006040719D0000719D0000719D0000719D000013
S214006050719D0000719D0000719D0000719D000003
S214006060719D0000719D0000719D0000719D0000F3
S214006070719D0000719D0000719D0000719D0000E3
S214006080719D0000719D0000719D0000719D0000D3
S214006090719D0000719D0000719D0000719D0000C3
S2140060A0719D0000719D0000719D0000719D0000B3
S2140060B0719D0000719D0000719D00003DEC000088
S2140060C0EDEB0000E9EB000039E3000039EC0000DE
S2140060D0F1EB000011EC0000F5EB000099EC00007D
S2140060E0A9D00000F1D0000081EC0000719D0000F6
S2140060F0719D0000719D0000719D0000719D000063
S214006100719D0000719D0000719D0000719D000052
S214006110719D0000719D0000719D0000719D000042
S214006120719D0000719D0000719D0000719D000032
S214006130719D0000719D0000719D0000719D000022
S21400614010B5054C237833B9044B13B1044800E06E
S21400615000BF0123237010BD0001002000000000D6
S2140061604C36010008B5034B1BB10349034800E059
S21400617000BF08BD00000000040100204C360100EE
S214006180154B002B08BF134B9D46A3F5803A002104
S2140061908B460F461348144A121A09F042FD0F4B5D
S2140061A0002B00D098470E4B002B00D098470020BD
S2140061B0002104000D000D48002802D00C4800E025
S2140061C000BF09F0FFFC2000290002F099FF09F04B
S2140061D0E5FC00BF00000800008000200000000072
S2140061E000000000000100203C2C00200000000001
S2140061F00000000037B50446684680E80600251D06
S21400620003C885E805002373069B2361BDF81C3090
S214006210A38200232360084B1A6812B91C6004E0AE
S2140062200A4611680029FBD114609888013080B2B4
S214006230988003B030BD00BF1C07002007B5037967
S214006240054A0193036806CA009308300223FFF745
S214006250D1FF03B05DF804FB9CFE000070B5282457
S2140062602368ADF5047DB3F5C04F05460E4614D23F
S2140062701B6BB3F5C04F10D25B6A4FF4037201A9D3
S2140062800020984730B9236832461B6B2946DB6AE4
S21400629001A898470DF5047D70BD4FF40170F9E72D
S2140062A070B528252B68ADF5047DB3F5C04F05D332
S2140062B04FF4017420460DF5047D70BD1B6B002B5A
S2140062C0F6D05B6A4FF4037201A900209847044693
S2140062D00028EFD140F201262B68B3F5C04FE7D275
S2140062E01B6BB3F5C04FE3D29B6A002101A8984709
S2140062F0B042F1D040F20323984218BF0446D9E7D3
S21400630030B541F268024FF400340F4B9C5041F612
S21400631071321C6F03F52033C4F3033404FB000012
S214006320DD690A4CDA639A68A04205F4803522F4E7
S214006330401203D9012918BF42F480129A600DB1A9
S2140063400022DA6330BD00BF00800040005A6202BF
S214006350094B0022996C30B5DC6C234642EA0104F6
S214006360220C82701A0A210AC2701A0C1B0E0470C4
S21400637041700271437130BD0080E00F202A0B6827
S2140063801EBF4FF0FF3191408B43590801F0553145
S2140063905B1A03F033319B0803F033330B44017868
S2140063A003EB13130A444FF0013103F00F334B4352
S2140063B0A2EB13630370704773B50026044602AD64
S2140063C005F8016D011D1B222846FFF7D7FF606800
S2140063D09DF80730B3EBD06F03D120F0784002B0C1
S2140063E070BD28461B2204F108018DF80760FFF7F0
S2140063F0C5FFA0689DF80730B3EBD06F01D1C0434E
S214006400EBE74FF0FF30EAE74BF29A22036810B54D
S214006410B2EB134F044611D19BB2012B0ED1FFF7FE
S214006420CBFF431C0AD04FF6FF72E068030C934282
S2140064300AD180B2C01A18BF012010BD23680133EC
S2140064400CBF03200420F8E70220F6E737B5054620
S21400645001F10C04436901A9012220469847BDF8C2
S214006460043002A941F8083D0122AB69204698474E
S21400647003B030BD2DE9F043054689B0994603695F
S21400648008460E4617469847044600286CD1D9F8A9
S21400649004304FEA53285FEA580804F101036BD131
S2140064A099F8032099F802301203DB0203F4006324
S2140064B002F480521A43B9F800306403C3F30A03A7
S2140064C0134404F460441C442D4B1B22039327F012
S2140064D07843FF4302A901A802938DF80480FFF7D2
S2140064E04DFF9DF80420029B08A843EAC26300F80B
S2140064F01D8D1B2201A927F0784704930197FFF70B
S2140065003DFF9DF80320019B08A943EAC26305935B
S2140065104FF0FF339DF84020069382F0010202F50B
S2140065207F42FE3244EA024441F8044DAB69012240
S21400653006F110009847AB690446012205A906F14A
S21400654008009847AB69002818BF0446012204A932
S214006550301D9847AB69002818BF0446012203A9DE
S2140065603046984750B91CB131462846FFF76EFFB3
S214006570204609B0BDE8F0831C468CE70446F3E7E6
S21400658001009AB2036803F07F03012B03D840682A
S21400659020F07C407047072B8CBFD81F0020704728
S2140065A041F268034FF400311E4A70B5D15041F6EF
S2140065B071331D4C0122E669E36341F20C03E2509D
S2140065C002236061054623610021212006F48036FF
S2140065D009F066FB18B90146212009F061FB42F27A
S2140065E00C030122E2500EB10023E363431C02D0E9
S2140065F018B10E4800E00E4870BD0E4B9B680A337B
S21400660003F01F020123934023F003032B44AB4205
S21400661001D10020F0E755F8042B0132F7D00648E8
S214006620EAE700BF008000400000034024E000F0DE
S21400663021E000F00080E00F0EE000F0002310B52F
S2140066409A4201D1002010BD50F8234041F8234063
S2140066500133F5E77047000041F67132074B012120
S214006660DA6342F20C02995000224FF40031DA63EA
S21400667042F26803024AD150704700BF0000034050
S2140066800080004041F268034FF40031054A0020C4
S214006690D15041F67132044B0121DA6342F20C020A
S2140066A09950704700800040000003402DE9F041FB
S2140066B08646406800283BD0DEF8007090460024EE
S2140066C03E4657F834500134C5F3130C013501D05B
S2140066D0614532D0844206F10806F2D138680130AE
S2140066E031D0002507F1080606E057F83520304679
S2140066F0013206F1080627D00135A542F5D1032B55
S21400670016D0DEF800703868C0F30750032823D090
S214006710002407F1080608E057F83400B446C0F332
S2140067200750032806F1080617D00134A542F3D116
S21400673001238EF80830BDE8F08141EA0351C6E92E
S2140067400018BDE8F0813846C1F3130141EA03534F
S214006750C0E90038BDE8F081BC46C1F3130141EA48
S2140067600353CCE90038BDE8F08100234FF0FF3238
S21400677030B544689C4202D10023037230BD0168E4
S21400678001EBC30541F833206A600133F2E70000ED
S214006790EFF3108272B6034B1A6003680846DB6894
S2140067A0184700BFB01D002070B50025044686B00F
S2140067B00562E369AB4202D8206A06B070BD666C1B
S2140067C02068E36B05225B6901A906FB0500984774
S2140067D001A8FFF719FE012898BF236A05F10105F5
S2140067E09CBF01332362E4E7F7B507460E460D4625
S2140067F07B6C86EA05045B421C40A5EB060001D0D4
S21400680003B0F0BDFB6B01225B6901A928469847DF
S214006810019B013301D10435EAE72046F0E7F0B5E5
S214006820002504462E4687B0E369B34202D82846C0
S21400683007B0F0BD2368676C052207FB0637E36BDD
S21400684001A95B693846984701A8FFF7DDFD0128D6
S21400685009D807F114012046FFF7C6FF636C143B06
S214006860834208BF01350136DEE7F0B50468064608
S2140068700C1B416C0025B4FBF1F487B0F36930685B
S2140068805A1E9542776C06D3716C306801FB040083
S214006890143007B0F0BD0134B4FBF3F103FB114430
S2140068A0F36B05225B6901A907FB0400984701A862
S2140068B0FFF7AAFD0128E7D90135DFE72DE9F04FFC
S2140068C0144607460E469946C36B89B05B6901229B
S2140068D005A96068DDF848809847FB6B01225B6974
S2140068E004A930469847059B5A1C06D10020A36091
S2140068F0A075607509B0BDE8F08F01214FF0000E5D
S214006900A175217E049A04EBC101CE61A1F820E0B6
S214006910606802F07F05B042C2F3D31CE9B20CD126
S2140069204FF0FF33C4F800C02175A360237D043BFD
S214006930022B20D80020A075DCE7206803F07F0338
S2140069406045207D18BF84F816E088421CBF0020F2
S214006950A075012B8CBF0020012001298CBF0021CF
S214006960012188421CBF0021A175012D00F2D280B2
S214006970012BDBD9D1E002F07F02012A0FD8FB6B96
S21400698002225B6906A93046984706A8FFF7FAFD7B
S214006990237D032B69D8DFE803F06363040904A8AA
S2140069A0F4E7CC21227E04EBC2021184684AD35C51
S2140069B0049D88F8003005F07F02012A88BF002574
S2140069C0237E98BFC5F3C16504EBC303012A83F891
S2140069D02250B3F820A000F2A380FB6B02225B6972
S2140069E006A93046984700230DF1200B0BF8113D01
S2140069F0202206A95846FFF7C1FC1A2207A9FFF76E
S214006A00BDFC9DF80F30079AB3EB926F0CBF0123C5
S214006A10002308226375637D03B9A375A37D9BB12C
S214006A20BAF1000F15D07B6CB018594286EA000CFC
S214006A301CEA010F1CBF0021A175591E01405B1AFC
S214006A409A4584BF0023A37594F816B0BBF1000FD7
S214006A5030D095B9E37D002B75D14FF0000B16E0D2
S214006A60227E04EBC2021084A0E7227E062B04EBF3
S214006A70C20210849AD901239AE7012394F819B028
S214006A80E375BBF1000F24D19D4228D165762AF02C
S214006A900300304410441AF0030F7B6C18BF043018
S214006AA05B4286EA0002134203D031463846FFF7BF
S214006AB0DCFEA060A27D12B1236953442361237ECD
S214006AC0012B0ED801332376B9F1000F0CD1A07D2F
S214006AD010E7012D37D0032D08BFA376BDE79B46F0
S214006AE0D5E70023A375F2E7002AF0D0E37D002B5C
S214006AF0EDD0BBF1000FEAD1032DE8D0A1684B1C06
S214006B00E5D0CDF80080012322463846FFF7D6FEB2
S214006B10A075DCE7012B3FF609AF0023A37505E758
S214006B2000231B2204A906A88DF81830FFF726FCC0
S214006B309DF81830049AB3EBD26F0CBF01230023E4
S214006B400422637567E7A27D4FF0010BB4E700BF30
S214006B50DEFC000013B50C46002100932176134698
S214006B6061682246FFF7AAFE18B1E37D03B1A07E56
S214006B70A075A07D02B010BDF0B50546002687B012
S214006B80EC69013CB44203D80C46204607B0F0BD81
S214006B9001B14C1E6F6C2868EB6B05225B6901A97E
S214006BA007FB0400984701A8FFF72EFC0128ECD944
S214006BB001362146E4E7F0B504460D46466CE36B25
S214006BC0006887B05B69052201A906FB05009847A7
S214006BD001A8FFF719FC012804D801A8FFF7ECFB71
S214006BE007B0F0BD29462046FFF7C6FF0646676C8D
S214006BF02068E36B05225B6901A907FB060098473E
S214006C0001A8FFF7D9FB431CEAD0B54238BF0130D4
S214006C10E6E74369416CDA1D1439B2FBF1F280698C
S214006C20013203EBC202043000EB4200DA1CB2FB76
S214006C30F1F203EBC2030333B3FBF1F3023301FBC0
S214006C4003007047214BD3F8F82102401CD1F0B462
S214006C50D3F8FC5103F5FC74641BA410022CD3F883
S214006C60006212D0032C29D0012C1AD0184C05F142
S214006C700C026468C5E90040C3F8FC21A9603368CB
S214006C800C333360F0BC704770470422104C6468C5
S214006C90686098182C601960C3F8FC013260F0BC7C
S214006CA070471A4608240A4F7F682F6042F8080B80
S214006CB05960C3F8FC213460F0BC7047044C64682B
S214006CC0A960C5E90040C3F8FC31E7E77C25002051
S214006CD0001000E0837DDB0701D5808A7047D0E98D
S214006CE001239B1A44BF828A9B1898B27047000003
S214006CF0044B5A6D22B95865A3F858100120704706
S214006D0000207047BC0600200A20D0B50B4CE38C50
S214006D10584308F0A7FC0646A08C0F4608F0A2FCD5
S214006D200022074B08F008FD02460B46304639465F
S214006D3008F02CFE08F012FF2083D0BDBC06002011
S214006D400000F43F40F2E243074A10B51468584387
S214006D5003FB0141536800F5807001EB50011844B5
S214006D601160506010BD00BFBC0600200022134614
S214006D7070B58AB0D910415C03F007042141CC07F6
S214006D8042BF0AA9891801F8283C03F1010348BF4D
S214006D900132252BEED100230D4DD910415C03F0B6
S214006DA007042141C90707D5E91881F82A300133BD
S214006DB0252BF2D10AB070BD93FBF2F102FB113124
S214006DC00AAE314411F8286CEC1884F82A60EEE715
S214006DD0BC060020024BD86880B28002704700BF15
S214006DE00080E00F0C4B10B50C4CE41A0C4B1C4406
S214006DF024F4FF5424F01F04FFF7ECFFA04202D84F
S214006E000024204610BD2046FFF7FEFA0128F8D9D8
S214006E1004F50054F0E700BF10000020FC0000203E
S214006E20975601007FB502466D460D4B03F11006DE
S214006E302C4618685968083303C4B3422546F7D170
S214006E40531E04A90F3211F8014D13F8010F8442A6
S214006E5004D19342F7D1012004B070BD0020FBE7B7
S214006E60B0FC000070B5154D286810BB144B154CCF
S214006E70E41A154B1C4424F4FF5424F01F04FFF7B7
S214006E80A9FF844214D2666BA6B1FFF7A3FF864221
S214006E9010D2FFF79FFF06F1400383420AD8304620
S214006EA0FFF7C0FF30B1F36933F0080302D02C605F
S214006EB0286870BD04F50054E1E700BF7C0100209F
S214006EC010000020FC00002097560100BFF34F8FF3
S214006ED00549064BCA6802F4E0621343CB60BFF371
S214006EE04F8F00BFFDE700BF00ED00E00400FA058D
S214006EF028231B68B3F5C04F05D21B6BB3F5C04FF4
S214006F0001D2DB6B184740F20110704728231B683C
S214006F10B3F5C04F05D21B6BB3F5C04F01D29B6BC8
S214006F20184740F20110704728231B68B3F5C04F7E
S214006F3003D21968064A914203D000230370836087
S214006F407047012202709A689B694260F7E700BFAB
S214006F5007B0CD5E10B50C4630B90448FFF7E4FF25
S214006F60034B23600423A380002010BDD80100201B
S214006F70DC01002010B508B3114B1A6891888142D5
S214006F801CD399880024814281BF01211268998010
S214006F909A6099889A682AB904B19A604FF6FF7188
S214006FA0998009E0884204D00131126889B2012430
S214006FB0F1E70CB198809A60104610BD0022FBE7FE
S214006FC02407002037B50D461446FFF7D3FFD8B187
S214006FD00369828A63B14FF6FE718A4208D10020A7
S214006FE069460090ADF80400984738B103B030BD4C
S214006FF02B602280286848B92080F7E7009B2B602A
S214007000BDF804302380F5E70120EFE70020EDE728
S21400701037B50D461446FFF7ADFF70B1036973B17F
S2140070204FF6FE72818A914209D10095ADF8044070
S21400703069460120984703B030BD0120FBE70E20CB
S214007040F9E7000037B504460379124A0333019383
S21400705000F14403009306CA02231430FFF7CAF86F
S214007060228A237A0192E26804F12C00009294E8C6
S2140070700600FFF7BFF80546237AA4F8450084F813
S21400708044302279216804F1470008F0BFFD284605
S21400709003B030BD94FE000070B50E4C0E4B04F1EC
S2140070A0100206460D4692E8030083E803001846E1
S2140070B0FFF7C4F80222094B18341A7294E803004A
S2140070C0DE6083E803001D821846BDE87040FFF7C7
S2140070D0B9BF00BFB0FC0000142500200405002046
S2140070E02DE9F041054616468846FFF7F3FDAB8AC4
S2140070F0181A80B2864228BF064637465FB93EB1A8
S214007100D5E901329A4202BFAB7D43F00103AB756D
S2140071103046BDE8F081AB8A2C68A8681C44241A67
S214007120A3B2BB428CBF3C46A4B22246414608F0FE
S2140071306DFDAB682968AA8A23440A44A04493429A
S214007140A7EB0404AB60A7B228BFA960D6E770B56A
S214007150044615461E4611B3FFF7BCFDA38A181A4F
S21400716080B2012829D9E37D63B1E368628A1A7088
S214007170120A07D02068A18A013301448B4228BF37
S2140071800346F4E700236382A3680222E36004F167
S21400719012012046FFF7A4FFE37D0133E375324674
S2140071A029462046FFF79CFF638A03446382E37DFB
S2140071B013B9238A0344238270BD0020FCE72DE91F
S2140071C0F041164605468846FFF784FD864228BFEE
S2140071D00646B6B237464FB92EB1AB7DDA0744BF86
S2140071E023F00103AB753046BDE8F081AB8A2C680E
S2140071F069681C44641AA3B2BB428CBF3C46A4B266
S2140072002246404608F002FD6B682968AA8A234495
S2140072100A44A0449342A7EB04046B60A7B228BFBD
S2140072206960D8E770B51E46038A04461546EBB972
S214007230C27DDAB10123013A0B70C27500F110016C
S2140072400222FFF7BCFFE37D9BB1228A2946B242A9
S21400725028BF32462046FFF7B2FF238A1B1A238236
S214007260E37D13B9638A1B1A638270BD00230B701B
S214007270EBE7638A2382E8E770B50D46A8B9FFF707
S214007280F1FD446BFFF7EEFD58B12346084C03F1C1
S2140072904006224618685968083303C2B3421446AB
S2140072A0F7D1044B2B600423AB80002070BD00BFD9
S2140072B080010020A001002038B5202204460D469B
S2140072C00C30002108F0ADFC00234FF0FF32A37510
S2140072D0C4E90025A260E3756376A376237638BDFD
S2140072E02DE9F04F0E4600258BB004464FF0FF31D7
S2140072F01046C6F3130917469A468DF81350FFF743
S214007300DBFF4E456BD12B46E1688B420DD0A26861
S21400731002EBC30052F83320551C0DD0C2F3130203
S214007320914509D141684D1C08D1237C002B58D1CA
S21400733047480BB0BDE8F08F0133E6E73846FFF765
S214007340BBFF0DF11303012239462046FFF702FC6E
S2140073500028EAD09DF813308AF800300020E8E7CD
S2140073602368ED1A636CB5FBF3F542E04046FFF781
S214007370A3FF0DF11303029A41462046FFF7EAFBEE
S2140073808646D8B1B11C03D0D8F80030B34215D128
S2140073909DF813302F4A8AF800303B4602F1280B3E
S2140073A09446BCE80300DC4518605960624603F169
S2140073B00803F5D1F346DCF800001860D8F808108A
S2140073C032E0BBF1000FB3D04E45C7D19AF800307B
S2140073D07A68314604F10800FFF768F9BEE7B31C87
S2140073E0A3D1E56A681CBBD1616A2046FFF7C4FBDF
S2140073F00546B31C18BF0123DFF858800293636A62
S214007400626C0393236805A902FB053BE36B052228
S2140074105B695846984705A8FEF7F6FF0BF114037C
S21400742019464FF0000B01934A1C05D0636C019A75
S2140074305B424A40134299D029462046FFF79CFB00
S214007440039BAB42BDD0BBF1000FBDD10546D6E7CE
S2140074500BE000F0D01E00202DE9F04F4FF0FF3378
S214007460002589464FF6FF71044600F1080689B0EC
S214007470C0E90913C362056205633046FFF775F974
S2140074802046FFF791F900285ED14FF6FF7BD4F82F
S21400749024800027D84514BF45460025E3699F424F
S2140074A055D32046FFF780F9002836D1B84D204640
S2140074B0FFF7B5F92CE12368E26B606C576903A906
S2140074C0052200FB0530B84703A8FEF79DFF0128FC
S2140074D0074603D0C31EDBB2012B15D8294620462B
S2140074E0FFF769FB0246012F94F85030676C21685D
S2140074F0009308BF0132434607FB0511E06BFEF719
S214007500B9FF2046FFF750F90135E3699D42D2D313
S2140075102046FFF749F90028B7D000254FF0FF387E
S2140075204FF6FF73C1462F46C4E90853E3699F42EE
S21400753041D3A5EB0805012D60D84FF6FF72636AAC
S214007540934270D1934DB2E704F14008DDE7636CD7
S214007550E26B2068D2F814C003A9052203FB0500DD
S214007560E04703A8FEF750FF022812D0D84518D1EE
S21400757009F1010294F85030606C2168009300FB1A
S214007580051104F14003E06BFEF774FF2046FFF799
S2140075900BF9E3690135B5FBF3F2013703FB12552E
S2140075A07CE729462046FFF706FBB0F1FF3F08BF01
S2140075B04846421CDEE7636CE26B2068D2F814C0D3
S2140075C003A9052203FB0700E04703A8FEF71CFFFC
S2140075D0824603A8FEF7F0FEBAF1010F0CD8484524
S2140075E038BF6762804528BF8046854238BF05465B
S2140075F08146236A01332362013797E74FF6FF730C
S21400760000256362E3699D4297D2676C2068E36B4E
S21400761005225B6903A907FB0500984703A8FEF748
S214007620CBFE0135EEE7E26B676C2068556903A96F
S214007630052207FB0300A84703A8FEF7BDFE616C02
S2140076402268636A544D01FB03231433A3624FF090
S214007650FF332A46E3626FF001010DF10B0320466B
S214007660FFF73EFE002857D1AB68E362E56A204686
S2140076702946FFF7B9F8206320B9E16A2046FFF7EC
S214007680F4F8E06229462046FFF7EFF80546A36ABD
S2140076909D4243D16369656C2046A5F11402DD1C4A
S2140076A0B5FBF2F503EBC5050335B5FBF2F5FFF7C1
S2140076B0B6F8AB1C9842814642D2616A2046FFF774
S2140076C05BFA01268046033504F1400A731E99458D
S2140076D015D82368676C052207FB0837E36B03A9F8
S2140076E05B693846984703A8FEF766FE94F8503064
S2140076F00246009339465346E06BFEF7BBFE414612
S2140077002046FFF739FA0136B5428046DED1234DD2
S214007710284609B0BDE8F08FA36AA6E729462046AA
S214007720FFF762F8236B2946034407462363204687
S214007730FFF79BF80546002FA9D1C4E90B07A6E77B
S2140077403046FFF712F8164DA16AE36A994201D057
S2140077504B1C01D10025AAE62846FFF7ADFD0DF12A
S2140077600B03012229462046FFF7F4F930B1D5E98C
S21400777000129DF80B303046FEF798FFA9684A1CA9
S214007780E3D169682046FFF770F80146DDE700BFE1
S21400779003E000F016E000F0A41E002013E000F066
S2140077A0FC1E00202DE9F04F41F268038A464FF494
S2140077B000314FEA820B354A354C85B00190D150E6
S2140077C0E369012203F48033029341F67133E363E5
S2140077D041F20C030746D1465E46E2500EB93046EB
S2140077E02FE007F5005525F4FF5525F01F056761C6
S2140077F0ED1BE269B54228BF3546520735D4D9F8A5
S214007800001009F10402A161A5F10408B8F1000F07
S2140078100ED1042241462261212008F041FA80B9A7
S214007820212008F03DFA60B92F44A944761BD5E71D
S21400783008210846039208F033FA039A78B1042325
S214007840236142F20C020121114B9950029A0AB1AF
S2140078500022DA63431C0BD070B10E4809E052F8E0
S214007860041BA8F10408A161D0E74FF0FF30E8E759
S214007870094805B0BDE8F08F5A465146019808F011
S214007880D8F90028054808BF0020F2E7008000402D
S2140078900000034024E000F021E000F010E000F0DB
S2140078A02DE9F04385B088466946044681E80C0019
S2140078B00C9EBDF83470FFF75DFB4FF6FE7905466B
S2140078C00DB1444505D94FF6FF74204605B0BDE816
S2140078D0F0832B7A9DF804209A421ED1009968689E
S2140078E008F0A7F9C8B9002EEFD02B69AA8AA3B171
S2140078F04A4509D10290ADF80C0002A9984760B934
S214007900029BBDF80C2043B1974206D13A46194671
S214007910304608F08EF90028D7D001342D68A4B27E
S214007920CEE70000F0B5354C85B011464FF48670B2
S2140079301F461646FFF786F9236925462BB94FF4EE
S2140079408370FFF77FF905B0F0BD002F08BF082E43
S21400795021D16A460321206802F044FD6368606115
S2140079605B7A04F1180123769DF800300220DA1FB6
S21400797053425341627E63F30002029B6276E361E8
S214007980BDF80230638323699847012200212068EE
S21400799002F030FDD7E7002F08BFB6F5800F03D101
S2140079A0002101209847CEE7002306F440521343F7
S2140079B009D04FF480714FF48170FFF743F92369C3
S2140079C000210320EEE7002306F4A062134308D04C
S2140079D001214FF48170FFF735F92B690021FF2054
S2140079E0E0E7002306F0A052134319BF012140F23E
S2140079F0011031464FF48370EDE700BF30230020BE
S214007A007FB502238DF80C30064B5A8B596903322A
S214007A100292186801AA02F0E9FC019807B05DF826
S214007A2004FB00BF3023002008B500214FF485700A
S214007A30FFF708F90022044B03211A611868012297
S214007A40BDE8084002F034BA3023002013B50D4BD1
S214007A5001281B880C4CADF80430ADF8003002BF8E
S214007A6002238DF80430042301A9206808BF8DF88E
S214007A70003002F01BFC6946206802F02FFC02B0C2
S214007A8010BD00BFD0FC00003023002037B5002218
S214007A90114C437A00926060D0E90021206802F021
S214007AA01AFD238CDB050CD563680C4D1A7A2978F1
S214007AB0914206D0012A06D0022A08D063681B7AB3
S214007AC02B7003B030BD206802F0D6FCF6E72068C5
S214007AD002F0D8FCF2E700BF302300201907002090
S214007AE07FB51A4C1948637A0133DBB2272B88BF5F
S214007AF025236372FFF7CAFF257B627C144C154969
S214007B004FF400730232206802F04CFC6368124A9D
S214007B105B7A05F001052846D65CFFF797FF42F230
S214007B20107300220293012300928DF80C30314628
S214007B3002AB206802F0C0F928B1FFF775FFFFF727
S214007B40CFFF04B070BD054B2361FAE71C0100208F
S214007B50302300202C01002069FE0000558700001D
S214007B6038B50D4611462C680144A41A224608F082
S214007B706FF82C6038BD00002DE9F84F8A4655494D
S214007B80554C0B689346C51A5448554A241A55480E
S214007B901560044424F4FF5424F01F04A5428846CC
S214007BA0914676D35B445E19FFF71CF908B9FFF7D8
S214007BB011F986426DD8D8F8000000EB0B06B6F532
S214007BC0806F03D98222484B1A7060E0474F5A46AE
S214007BD05146384408F01AF8454BC8F800601A6851
S214007BE01AB9332E53D97A6B1A601B68AC199D42AA
S214007BF01DD8A3421BD203F11002A24247D85B1B3A
S214007C001F443B463B4A07F1100153F8040B8B42D6
S214007C1042F8040BF9D13748FFF704F910B9324B94
S214007C208422D1E71022FF21384607F0FAFF324FB0
S214007C3006F0030631483B68A41B044053B92840AD
S214007C40C0F500512144FFF753F93C6040B1264B84
S214007C508522B9E7A34203D2E11A03F50050F2E702
S214007C60D8F800202149921BD9F80000FFF74EF9FA
S214007C700446D8F80020D9F80030921B1344154962
S214007C801A48C9F80030FFF76BFF002CDFD1BDE8BB
S214007C90F88F1B4B5B68B3F1827F134B14D25146AF
S214007CA0002618780AEB0B028A4203D1002EEED08B
S214007CB01870ECE711F8017BFF2FF5D00126A542DE
S214007CC034BF87208320EFE7A54234BF8722832274
S214007CD07AE700BF28230020FC00002010000020C8
S214007CE0640B002097560100610B0020281F00201F
S214007CF0E81D0020D81D00202C23002000E0FFFFF8
S214007D00E4010020EFF3108072B6704741F264037E
S214007D104FF48031064AD150064B5B69C3F3851297
S214007D20827003F03F021B0B42700370704700BF67
S214007D300080004000C0074037B5044601A8FFF7A2
S214007D40E5FF9DF80630012123804FF48073002064
S214007D50084A638093680A3303F01F0301FA03F3AB
S214007D606360956CD36C40EA0502C4E9022303B055
S214007D7030BD00BF0080E00FF0B54AB101253024C9
S214007D801D4E8D4004FB00640BB341F21006A55156
S214007D9030244443072904F1804404F5703419D88C
S214007DA00F2765688E00B74025EA070502FA06F633
S214007DB03543656052B9012202FA01F130220E4CB9
S214007DC002FB0040A3B141F21003C150F0BD42F2E5
S214007DD01006DCE70F2701F18045083DE668AD0098
S214007DE0AF4026EA070602FA05F53543E560E1E707
S214007DF042F21003E9E700BF00C00340EFF3108033
S214007E0072B6704700B962B67047000010B5034CF2
S214007E10A01DFEF7ABFF0023236010BDB81D002099
S214007E2010B5094CB4F80710A079FEF78BFFA368CD
S214007E30B4F80D10054AC3F30F239384D184FEF7DC
S214007E4063FF0023236010BDB81D0020BC06002081
S214007E50034B044A9979117500221A60704700BFD7
S214007E60B81D0020BC060020FFF7CCBF08B5C368CD
S214007E7000209847024B1868BDE80840FFF7C2BFCD
S214007E80B01D00202DE9F04F984F89B03B7806468C
S214007E908946039203F0FF0B002B37D1FEF7A2FFB3
S214007EA08246FEF797FFBAF1000F00F01381904B61
S214007EB0A0F50055D3F80080C3F800B08D4BA5EBB5
S214007EC00A0593F834101C4600297FD01A6892459C
S214007ED040F000815A68954240F0FC809968864AD6
S214007EE0914240F0F780DA68062A40F0F38040F2CC
S214007EF06C725969914240F0ED80D96B7F4A91428D
S214007F0040F0E880C3F818B001233B70794D95F82F
S214007F103430002B00F0DE8046F48028784E0121B5
S214007F2005F13C00FEF734FC06AB324641462846D7
S214007F30FFF7D6F90446002840F0D3809DF81830A5
S214007F40032B00F0CE80022B00F0CE803769E86B62
S214007F50FFF78CFF002C40F0BD80039B1B78BB42D4
S214007F60C0F0B88095F834300293002B00F0B28051
S214007F7001216448FEF70CFC0DF11303604A4146EC
S214007F805C48FFF7ADF9044698B99DF81330012B0D
S214007F9040F017813369BB42C0F00D81D6F804B0BB
S214007FA0DFF850A10097009ADAF83C30002A40F03B
S214007FB0B180504BD86BFFF759FF002C40F08A80F9
S214007FC0039B1F70029809B0BDE8F08F482203F1AA
S214007FD01000D3F838B007F024FE40F26C736361EB
S214007FE0454B04F10800A3600623E360C4F838B0EC
S214007FF0C4E900A5FEF7B9FB404B04F14000E3637B
S214008000FFF79AFE00286AD1626C002A67D0636880
S214008010B3FBF2F3E36194F84330002B5AD000230D
S214008020656C84F85030002D54D0E369002B51D095
S2140080302268B2FBF5F305FB1323002B4AD1D4F8D4
S21400804004A0BAFBF5F305FB13A3002B42D1294885
S214008050FEF7DFFD82453DD340F634726369CC3BC4
S214008060934237D8B5F5007F34D303212548FEF771
S2140080708FFBD4E90001E36B1B6898470546E36B6A
S2140080800220DB689847D5B941461A48FFF7E4F95D
S2140080901D4B0546984204D141461648FFF7DCF9C9
S2140080A0054665B9636C1348A3F11408236A03FBFD
S2140080B008F8FEF7AEFD154B804538BF1D46B5FAED
S2140080C085F3E06B5B0984F83430FFF7CFFE002DB4
S2140080D03FF41AAF0023039A0293137072E700234B
S2140080E098E700270A4C32E7042730E71C1E0020DA
S2140080F0F8030020201E0020EC1D00204CFE00008F
S214008100781E00205C1E002013E000F002E000F065
S2140081100BE000F05B69012205A9584698472C49F8
S214008120059B0968C3F3D312914246D103F07F033F
S214008130012B30D905A8FEF725FA4FF004080646AD
S214008140009B9E423BD8B208D84432D0EB6B4946DF
S2140081505B694046984726F0030306F00302019247
S21400816098449944019B6BB1DAF83C3001225B6974
S21400817006A9404698474846019A06A907F046FDD4
S214008180019B9944009B59469B1B50460093FEF763
S2140081906CFB834607E7DAF83C3002225B6906A9E7
S2140081A05846984706A8FEF7EDF94FF00808064629
S2140081B0C6E70196D6E7074CFBE6074CF9E6074C00
S2140081C0F7E6074C074A022B08BF1446F1E600BF45
S2140081D0781E002011E000F022E000F023E000F01E
S2140081E00BE000F00CE000F02DE9F04106460D46ED
S2140081F014460C4F0CB9BDE8F081EFF3108872B648
S21400820023462A4631463846FEF7A1FF0346404637
S214008210FFF7F8FD002BEDD0E41AA4B21D440026AB
S214008220E8E700BF941C0020002313B501F1080402
S21400823021461A46ADF80430ADF80600083151F86C
S214008240100C70B90BB1ADF80420042201200DEB20
S21400825002010834FFF7C8FF54F8101C39B902B001
S21400826010BD51F80C3C1A4492B20123E6E734F8EC
S2140082700C2C0020EDE700007FB500230130CDE98F
S2140082800433064BCDE901016946042000930392AE
S214008290FFF7CAFF07B05DF804FB00BFC601002069
S2140082A02822136810B5B3F5C04F0ED2EFF3108036
S2140082B072B6002407490B780C70FFF7A3FD3BB19C
S2140082C0BDE8104013681B6A18474FF4817010BD54
S2140082D01846FCE7B41D002001282DE9F34740F0BE
S2140082E03C818B88012B40F03A810B681B7813BBCE
S2140082F09D4A9E4C13609E4A13609E4A13609E4A97
S21400830013609E4A13609E4A13709E4A13609E4AEC
S21400831013602278022A01D1FFF7C2FF01232370DF
S21400832000249A4B1C709A4B1C709A4B1C7020466B
S21400833002B0BDE8F087032B40F0FC80954BDFF8D9
S2140083402C921C78002C39D199F80030002B00F0C4
S214008350E7808B4B1B78082B40F08280824B186896
S214008360984668B928252B68B3F5C04F63D34FF4F9
S214008370017041F20803984200F0D48080241DE08A
S21400838010F003060EBF2646C6F10406F6B200EB52
S214008390060ABAF5806F00F2C9807F4B3246FF218D
S2140083A01844784F07F03DFC7C4A3B6812680AEB9D
S2140083B003019142C8F800A004D98324002389F859
S2140083C00030B4E76A4A15681D445544DFF8ACA18E
S2140083D025F4FF55DAF8000025F01F05854209D977
S2140083E0291A00F50050FEF783FD08B18524E5E75D
S2140083F0CAF8005028231B68B3F5C04F18D21B6B71
S214008400B3F5C04F14D21D69634AD8F800303968F6
S2140084100020A84705463B68D8F800205249134478
S2140084209E1B5D483E60FFF79BFB002D9AD0DDE764
S2140084304FF48175EFE7FDF733FF002899D12B68DD
S2140084400190B3F5C04F07D21B6BB3F5C04F03D2F4
S2140084509B69012101A8984701224D4B1A70ADE790
S214008460002B61D0494B1B78002B87D0464E3368D3
S21400847043B9414B10224A491868FEF747FD0028C9
S2140084809CD0B3E713F003021CBFC2F10402D2B2C1
S2140084909F18B7F5806F49D84248FF21184407F067
S2140084A0C0FB414A414B37609B1A414A1344314A4C
S2140084B023F4FF53156823F01F03AB42904637D8CA
S2140084C02F44FEF78FFC08B9FEF784FC87423FF680
S2140084D074AF3368294F1D4425F4FF55386825F0DE
S2140084E01F05854208D9291A00F50050FEF700FD41
S2140084F000287FF47BAF3D6032682A49D8F8000038
S214008500FEF704FD0546D8F8003032681E491344CD
S2140085102448C8F80030FFF723FB002DA9D065E7F4
S21400852081244BE7862449E7842447E7822445E7ED
S214008530872443E7042B14D1132302211D4C6370B8
S21400854020462170FEF7D4FB1B4A1C4B12890532CD
S2140085509A801B4A1A6062789A710024E7E60D2416
S214008560E5E60624E3E600BF5C0B0020620B002075
S21400857074250020640B0020E81D00202C2300201A
S214008580C0010020680B002028230020600B00207C
S214008590CD010020610B00205C070020782500201C
S2140085A0D81D0020281F002010000020FC000020FE
S2140085B097560100CC1D0020BC060020B81D0020E8
S2140085C0518C000028231A6810B5B2F5C04F0ED2A1
S2140085D0EFF3108072B60124074A11781470FFF783
S2140085E011FC39B9BDE810401B68DB6918474FF429
S2140085F0817010BD0020FCE7B41D00200B4A08B5B2
S214008600937E4FF0005443F0400393760022084BCD
S2140086101A70084B1B782BB1FFF7D4FF064B23606C
S214008620FEF754FC2360FEF751FC00BFBC0600209A
S21400863018070020CD01002002020FF010B5134CE1
S214008640A37E5B0621D4FFF7EFF940F2E242252035
S2140086502168A38C02FB031294F84F102260A27AC2
S2140086600A4492FBF0F100FB11220A21A272228931
S21400867001322281626801FB03236360238B5A1E4A
S214008680228313B90820FFF7B9FF10BDBC060020EF
S2140086902DE9FF41294C40F601002189FEF7D2FA68
S2140086A0A37E13F0400242D143F0010303F0FD0322
S2140086B062F38203224AA376136823B12189928843
S2140086C0914200D19847A37A1E4F234493F82A304C
S2140086D01D486375FFF7DAF9D4E900547B6864082F
S2140086E05B7A1A4A2E1B012012F803806435FFF7C6
S2140086F0ADF900960026254401246A4641463346D5
S214008700386802958DF804608DF80C608DF80D4081
S2140087108DF80E6001F0D4FB0546224631463868D7
S21400872001F068FE35B1FFF789FFFFF7B1FF04B02F
S214008730BDE8F081064B3B61F9E700BFBC060020B0
S214008740B81D002030230020C806002069FE000067
S214008750B988000002282DE9F0411FD002D8012870
S21400876007D0FEE7032800F09C80FF2800F09980E1
S214008770F7E74D4C237B980707D5FFF755F9FFF72A
S214008780AFF9237B6FF341032373237B990701D44F
S214008790DA0764D4BDE8F041FFF7A2B94B784C681D
S2140087A0DB077ED5227802F00F07032F59D0052F5E
S2140087B077D13E4904F108008B7B03F00103B3EB4D
S2140087C0D21F4CD10622083107F033FA8046002823
S2140087D045D1FFF729F9FFF713F9354D414606460F
S2140087E05C22284607F01DFAAB7E2F8343F0200359
S2140087F0AB76627E237E012743EA0223AB84627F48
S214008800237F04F11E0043EA0223EB8494F823300E
S214008810C3F3040385F84F3094F82330C3F34213B0
S21400882085F850301B232B85FEF7A0FAD4F80E30BF
S214008830E27CEB60A37C2E6043EA0223227D2F7548
S21400884043EA02432B6195F84F30607DAB72E18AB4
S2140088503944FEF777FAFFF71BFF164B1F70BDE88B
S214008860F081124D04F10800AB7B03F00103B3EB7B
S214008870D21FF4D1062205F1080107F0DAF9002824
S214008880EDD1094C4FF4007394F8392004F1380107
S2140088900232286801F086FD237B43F0020323732F
S2140088A0DDE7FFF7C1F875E71C0100203023002044
S2140088B0BC0600201807002002282DE9F7430F46C3
S2140088C00BD003D8012800F0B281FEE7032800F0A1
S2140088D0B681FF2800F0B381F7E748784E6810F0BD
S2140088E00104BA4D61D14FF0FF3140F60300FEF7A8
S2140088F0A9F92646AB7EB64C13F0200F12D0696D50
S2140089006FF34513AB76002900F09F80237895F827
S214008910582043F0030323706270A01C07F076F91A
S21400892000236B65AB48FEF7D5F9003018BF012071
S214008930AA7E237860F34102C2F30011AA7661F39F
S2140089408203C2F3C00262F3C30360F3041323700E
S214008950218840F60200FEF775F96278DFF8988203
S21400896002324FF400739A49D2B2D8F8000001F0F0
S21400897019FDAB7E7C68D90709D56FF30003AB768B
S21400898000236B60FFF73CF82860FEF7BDF94EB198
S214008990237803F00303022B00F031816DD8012BFE
S2140089A000F02C8103B0BDE8F083318840F6030068
S2140089B0FEF748F93378A97EC3F3001396F80080D3
S2140089C063F38201A976C8F3C003C1F300118B429A
S2140089D006D108F00303022B05D019D8012B31D09D
S2140089E00026344615E0A146767896B17A48848A01
S2140089F0FEF770F9201A80B2B9F1000F04D00228F1
S214008A0092BF0020023880B286428CBF0024012428
S214008A102646AB7EC8F38008C3F3C002904507D055
S214008A2082F0010262F3C303DBB243F02003AB76AD
S214008A30002C3FF45FAFAB7E81F0010161F30413BD
S214008A40AB7657E74FF00009CEE795F82830A21C22
S214008A500DF107015F48FEF7E5FBC0B258B19DF87F
S214008A600730002B0CBF012202222378607062F3CD
S214008A700103237056E70122F7E7A378022B65D09F
S214008A8011D8002B4DD0012B38D0544A127822B181
S214008A90162B7FD0182B00F08C800722504802211E
S214008AA00270437027E00C2B18D0142B56D0082BDE
S214008AB0EBD1B8F8201054F8035FC8B205EA0002FC
S214008AC0474801F47F4142EA010504460921002394
S214008AD004F8011BC0F8015063600CE040484FF0FA
S214008AE0FF32037001238270437002220371002359
S214008AF00621C2704371FEF7FBF853E7617A237ACA
S214008B00384A43EA012393801346374943F8061B45
S214008B1054F8031FC2F80610A2889A80A2799A71A8
S214008B2040E7627B237B2F4943EA02238B800B4678
S214008B302E4A43F8062B54F8032FC1F80620626825
S214008B405A6022891A81A27A9A722BE72A89254BC3
S214008B5005329A80264A1A60E278E0E7B4F80530D3
S214008B60B4F80320DB08934228BF13462B85152351
S214008B701B4800216FF004046FF0270203700723E0
S214008B80817081714470C27003714471C271037246
S214008B900921B0E72279E3781148134003F0030374
S214008BA0022B18BF01231722437002708370032123
S214008BB0A1E76279A1790B4B42EA01229A800D4A1D
S214008BC01A60D4F80320C3F80620EBE6BC060020A3
S214008BD080270020941C00207C1B0020AC1D002059
S214008BE0CC1D0020B81D00200D7E0000217E000058
S214008BF0518C0000517E00003023002000261248D1
S214008C00A51C818AFEF766F8081A647880B226B139
S214008C10022892BF0020023880B2A3B283423FF6F9
S214008C20C1AE2A4631460848FEF791FABAE6074B27
S214008C309B7E9A073FF5B6AE5B073FF5B3AEFFF7F0
S214008C40FDFCFFF725FDADE67C1B0020BC060020E2
S214008C5008B5024B9879FFF7D1FC00BFB81D00207D
S214008C602DE9F04F01288DB040F08D818A88002ACA
S214008C7000F08B81B24E96F800A0BAF1000F00F01B
S214008C808681B04B1C781F4664B9AF4805780090C3
S214008C9045B9AE4D286802EB0008B8F5806F05D9D7
S214008CA082241C7020460DB0BDE8F08FDFF8B89225
S214008CB00968484406F0AAFFBAF1020FC5F800801A
S214008CC03CD0B8F1030FEDD9DFF8AC824046FEF792
S214008CD02BF998F80030D9F80020012B9C4B58D17E
S214008CE09A4258D1D8F80830DB035AD5022333709D
S214008CF0FFF768FC28231B68B3F5C04F07D21B6B31
S214008D00B3F5C04F03D29B6805A900209847059885
S214008D10904B069A1860904BDFF860821A608F4B73
S214008D2000EA08024FF400511A60FEF7E1F860BB53
S214008D30FEF798F8D0B93378022BB3D18848894E1D
S214008D4090F800C031682B681CF0F70F01EB0302A7
S214008D50804640F0D180804803F0030A0068A2EB0A
S214008D600A0282421FD983243C709BE74FF40051CD
S214008D70D0F834A0FEF7BCF838B94FF400510AEA30
S214008D800800FEF7B5F80028D5D085233B701C46B2
S214008D9088E79A4205D084233B703B78002B81D02D
S214008DA0F4E78623F8E76B4A126803EB020B8B4462
S214008DB06A4BABEB0A0B2BF4FF5B18682BF01F0B10
S214008DC0834501930BD9ABEB000100F50050FEF78D
S214008DD08FF8019B08B18524C6E7C3F800B02823A6
S214008DE01B68B3F5C04F80F084801A6BB2F5C04F95
S214008DF07FD22B68D2F810B0A3EB0A035A4A316828
S214008E000020D84783462A683368A2EB0A02134438
S214008E104E4955483360FEF7A3FEBBF1000FDAD18A
S214008E2098F80030002B7FF43DAF33687F2B7FF738
S214008E3039AF03A905A8FDF711FA10B9059B88F804
S214008E40003098F8003013F0F70F3FF42BAF4FF0D8
S214008E5028082A68444904A806F0D8FED8F8002056
S214008E603368B2F5C04FB6D2126BB2F5C04FB2D26D
S214008E700021D2F80CA008463B4AD047824600287C
S214008E80A9D13668D5F800B009EB06005A4604A901
S214008E9006F0BCFE314B5E442E60C3F800A0334E95
S214008EA0334B7360D8F80030B3F5C04F93D29B6A4B
S214008EB04FF480512F48984700288CD1D8F80020CE
S214008EC02B68B2F5C04F5BD2D2F82C803146264ACA
S214008ED02848C04706462A681C492348FEF740FE35
S214008EE040F203239E421DD040F201239E4225D12C
S214008EF0D8E64FF4817B86E7326028221268B2F506
S214008F00C04F13D2D2F82CA01849174A1948D04798
S214008F1082462A680D491448FEF722FE40F20323D3
S214008F209A4506D10123009A1370BBE640F2022A46
S214008F30EFE740F201239A453FF472AF802413E72F
S214008F40620B0020610B0020600B00205C0B0020F1
S214008F50EB17A60374250020782500202C2300207C
S214008F60C0010020680B00205C0700206C0B00206E
S214008F70797B00007C0B0020E401002000E0FFFF6E
S214008F8040F20226A7E700248CE60D248AE6812418
S214008F9088E600BF0048704700F04902430910B554
S214008FA007D0012B0FD00A4C0A4A022B14BF2346C7
S214008FB0134600F01F0041B103F58053012202FA68
S214008FC000F0186010BD044BF3E703F50053F5E717
S214008FD0608200406880004064800040FEE7000039
S214008FE0084B1B6F03F00703022B04D0032B06D09D
S214008FF0012B02D0FEE70448704704487047044837
S214009000704700BF00800040C0EA2101002D3101FA
S21400901000F0490238B50446194A1368D806FCD44D
S2140090204FF04023D3F88430C3F381139C4226D0FC
S214009030FFF7D6FF012C054602D12146FDF760F961
S214009040EFF3108072B64FF48062631E9A404FF0C2
S21400905040231A67D3F88420D10603D5D3F884209A
S214009060920609D5FEF7CEFE022C08D12846BDE8AA
S21400907038400021FDF744B9D3F88420EAE738BD2C
S2140090808440004008B5FFF7ABFF044B1B6FC3F3EB
S21400909003330133B0FBF3F008BD00BF008000408F
S2140090A0B0F5807F08D0B0F5C07F03D080280DD102
S2140090B0FFF796BFFFF7E6BF084BD3F8403113F033
S2140090C0030303D0022B03D9032B04D000207047E0
S2140090D04FF4004070474FF47A70704700800040AD
S2140090E0044B054A9A60D3F8882042F47002C3F80D
S2140090F08820704700ED00E00060000000000000DF
S2140091004FF040232DE98048D3F89430ADB05C068C
S2140091101BD44FF00053002224A81A60FDF704FF6A
S214009120FDF7A0FEC0B1446BFFF74CFA269B58072C
S21400913040F1D683FDF796FE28231B68B3F5C04F93
S214009140C0F0F983FFF7ACF806E04FF000531A685A
S214009150022ADED100221A60B74B1B68C3F307430E
S214009160012B10D1B54B4FF48022596E41F26400AA
S21400917049034FF0040458BF42F264011A50B04845
S214009180046058BF5A5041F2040041F264054FF0A3
S214009190004701244AF6CD314FF040224FF0070E2B
S2140091A0A84BA64E77511C50D3F844C01964C2F899
S2140091B03CE09A6822F0740242F044029A6040F260
S2140091C009121A6140F203125A6177511C50586C0A
S2140091D01964DA6A1707FCD442F224022021995057
S2140091E041F2080201219950964B1A46596A8E069A
S2140091F0FCD5012804BF94491964BCF1010F04BFD3
S214009200914B13648D4A136F03F00703032B42D070
S21400921041F264034FF40021D15045F60E028B4B09
S2140092200221C3F8802041F22802995042F2280217
S214009230012199509A6DD503FCD4854A85491A6157
S214009240854A9A611A6A22F00D021A629A6A22F018
S214009250330242F001029A627C4A1346906D31EA6C
S2140092600000FBD1022141F22800115011659A6DD1
S2140092705400FCD41A694FF0004122F4700242F404
S21400928000121A6141F21802995042F22802022195
S21400929099500121995041F264034FF40022674C23
S2140092A00121E25041F22802684B02209D6A995043
S2140092B0FFF7B0FE00216948FDF722F8236F4FF450
S2140092C0803243F48063236741F27003E250236FD9
S2140092D005F0020523F0070343F003032367FFF7B7
S2140092E0D1FE5F4B196811F01001FBD14FF04023FF
S2140092F0D3F88430C3F38113C3F10203002BC8BF35
S2140093000121FCF7FDFFFFF76BFE0220FFF782FE50
S2140093104FF4C070FFF7C4FE5249484A884294BFD3
S21400932000200120136F23F4806343EA8023136731
S2140093308020FFF7B5FE4C4B98429EBF42F270036A
S2140093404FF48031D15025B942F2280301213F4A1B
S214009350D15001213020FFF721FE1023374A434C1D
S21400936093660123C2F880326360334B04251B6C7E
S2140093702CAA2366002302F8985D08A935200893D6
S214009380FEF780FD06238DF81730089B8DF81650E3
S21400939013F4803FDFF8F8800AAD00F0D582236E24
S2140093A08DF82830236E8DF82930236E8DF82A30FC
S2140093B0236E8DF82B30236E8DF82C30236E63F0E1
S2140093C03F038DF82D309DF82E3043F001038DF8C5
S2140093D02E30C8F8045000254FF48071244B254ADF
S2140093E05961C3E900229A601D82234A234B24AFA9
S2140093F0C3E900229A6059611822294638461D8220
S21400940006F00FFC08238DF8913080238DF89330FA
S2140094101B4B4FF0010925930F238DF89B30194BFA
S214009420384627938DF8989000F0BAFC1648174BEC
S214009430294603602EE000BF0080E00F0080004059
S21400944020200140004009403254FFFF00C0004089
S2140094502008B00B030001403C8C8C0300B4C4040D
S2140094608440004080F0FA02005A620200C001A860
S214009470941C0020AC1C0020941B00207C1B0020A9
S21400948028FD0000E6FC000060230020257900008F
S214009490D0010020BE4BBF4E436000F0EFFCBAA3E5
S2140094A0D3E900233060CDE900234FF0FF334FF0BF
S2140094B0FF3200F017FF02224FF0FF31306800F055
S2140094C01EFFB54BB54C2493394603F50033306880
S2140094D02695259300F038FD21463068257000F06B
S2140094E038FF28B12146306884F8009000F031FF3C
S2140094F0306800F0BDFF2178B8F90020306800F031
S2140095005FFC0146306800F00FFFD8F80440DFF833
S21400951028A3002C40F032825046FCF719FFB37B9C
S21400952064F30003B37310229D4B9E4C83F82123F3
S214009530002183F8222304F10A0083F8262383F807
S214009540252383F8232383F8202383F82423562215
S21400955006F067FB9448954B4FF49072C4E90003FD
S2140095602523637201233284914A4FF00009137059
S2140095701B22904DDFF8C4822A802CAA02F89C3D5C
S2140095800DF115013E202372C8F80090FEF77AFC14
S21400959058B19DF8153039463068CDF89090C7F828
S2140095A004908DF8923000F0A7FE1E232CAA02F835
S2140095B09D3D14A93620FEF765FC20232CAA02F850
S2140095C09E3D39463920FEF75DFC80BB7A4B9DF800
S2140095D0132018681B7924903B71002A00F0D7816D
S2140095E01B2A28BF1B22531D8DF8123014A9531CAA
S2140095F00DF195008DF8933006F008FB1CA8FCF7DB
S214009600A7FE6E4A9DF8123012882CA9FA529A1CB0
S21400961051FA82F200211C9802F8201CBDF8741042
S214009620093342F81F0C22F81B1C8DF81230202339
S2140096302CAA02F89F3D1CA93A20FEF723FC48B945
S2140096405F4B1A889B78ADF870208DF87230032334
S2140096508DF8113000224FF002095A4B5A48C3E9E0
S21400966000225A4B80F804900360FCF7E7FD584848
S214009670584B80F80490036010230372FDF7E2FC59
S2140096805548564B80F804900360554B80F8089078
S214009690C360A0F81090CDE900394B4690E806006C
S2140096A01430FCF7A7FD9DF81310002900F0808108
S2140096B014A84FF01009FDF7EFFC4A484A4B80F813
S2140096C004900360FCF7BAFD4848494B4FF6FE7B12
S2140096D003600823474AA0F810B0C26080F80490E0
S2140096E003720393FDF7AEFC4348444AA0F810B05B
S2140096F002600C224FF0020B0272414A80F804907E
S214009700C260FDF79FFC3F483F4A039B02603F4A0A
S21400971080F80490C260038280F808B0FDF792FCDF
S2140097203B483C4B80F8049003603B4B80F808B005
S214009730C36001230382FDF785FC3848384B80F868
S21400974004900360374B80F808B0C3604FF6FE7392
S2140097500382FDF777FC3448344B80F804900360AE
S214009760334B80F808B0C3604FF6FE730382FDF7F4
S21400977069FC304B134A1A604FF6FF729A809DF8C8
S2140097801220202A62D85BE0083540140000000052
S21400979054230020302300203C00940012000020B8
S2140097A000E100E01C010020D6BE898E555555000C
S2140097B0AC1D0020C2010020B4FD0000C4FD000066
S2140097C0C7FD00001C07002034250020CBFD00004C
S2140097D05C050020CEFD000030070020D1FD000013
S2140097E0D2FC000054250020D4FD0000B405002063
S2140097F0E5FD0000D98200000C060020F6FD000002
S214009800618C00005404002007FE00006CFD000080
S2140098106406002018FE000068FE0000AC0400206D
S21400982029FE0000556F0000FC0300203AFE0000F1
S214009830797200002407002038230020F40300205B
S214009840931D63743946BC4806F0E0F99DF8112074
S214009850202A06D8931D84F839301CA9B74806F08C
S214009860D5F9FEF7E1F8237BB27B43F001032373BF
S214009870237C02F0010203F0F00362F386132374E4
S214009880637C0BB906236374BAF80410AC4BB0685B
S214009890C4F812009980042194F8383061F3030369
S2140098A062F3861384F8383094F8393013B90623F7
S2140098B084F83930B068BAF80420A24BC4F83A00ED
S2140098C09A80FEF70DF9A04CA04B1B78002B40F0B9
S2140098D0AF809F4A136923F00403136130BFF3E798
S2140098E0002C3FF42FACFDF775FA8442BFF42AAC87
S2140098F0FDF770FA04F1400383423FF623AC20469E
S214009900FDF790FA00283FF41DAC63696BB9FEF7CB
S214009910C7FCFDF7A7FA0446FDF7A4FA8C4B98603F
S21400992023689D466368984716E49DF89030012B9F
S214009930EDD1FFF7FFBB5B6A98470446FEF7B0FC25
S214009940002C3FF409ACE4E70DF1170229462C2061
S214009950FEF798FA00283FF43EAD0DF1160207A96F
S2140099603C20FEF78FFA9DF82E3020B19DF81C2083
S21400997062F300032BE560F3000328E52068B0607F
S214009980A288A379AAF804208AF80630CBE50E232D
S2140099908DF812300A238DF893306E4B1A68CDF886
S2140099A095205A681B7ACDF899208DF89D3025E6CB
S2140099B0092168487DE6EFF3108672B600230DF1A4
S2140099C019011A466448FDF72DFC3046FEF71AFAD0
S2140099D09DF8193013B10023C8F80030D8F80020DD
S2140099E0EFF3108672B6C2F501739BB222440DF1F6
S2140099F019015948FDF716FC03463046FEF702FAF1
S214009A00D8F8000018440328C8F8000010D9B4F8A5
S214009A10009009F1040398420AD306D8608800270C
S214009A2004280BD0062800F091810023C8F80030E7
S214009A304948FDF74FF90028BDD14AE7227909F1D8
S214009A40FF33082A6F809BB200F0F7801BD8042AE9
S214009A50424E38D0062A4ED0022A1BD1022B40F0A6
S214009A607181B4F805700022B7F5007F28BF4FF467
S214009A7000770323114602203370A6F80170FEF724
S214009A80FBFB2F80D1E7102A00F00C8104D80A2AAD
S214009A9000F088800622ABE0122A00F0B280522A3C
S214009AA0F8D1B4F80500FDF765FA0028BDD0037BB1
S214009AB05B07BAD5A9F1030292B22949B4F80500AA
S214009AC0FDF7A6FAB1E7042B40F09280B4F80570D3
S214009AD0B8B2FDF74FFA58B1027A4168022A0CBFB5
S214009AE0012302230520737030707780032077E00F
S214009AF06F800A227CE04FF00203DFF868B0A9F11D
S214009B000702B4F80500B4F8071092B28DF8443096
S214009B100BF102030093CDF840B0019210AB0CCBD2
S214009B20FDF7BEFE4FF6FF7A504581461CD16368AE
S214009B30C3F30F236B80DCE7340100205C010020B8
S214009B402E01002056010020F001002018070020FA
S214009B5000ED00E0BAFD00007C1B0020C6010020DE
S214009B60F7010020F90100204FF00203CDE900774D
S214009B708DF83430CDF830B001300CAB0CCB5146FC
S214009B8080B2FDF78DFE072350451CBF00F1FF3065
S214009B9080B23370A6F80190A6F8030000220420D5
S214009BA011461DE0022B40F0CD80B4F80500FDF70D
S214009BB0E1F900283DD0037B990714D52B882CAA01
S214009BC0013B22F88C3D10A9B4F80500FDF7FAF920
S214009BD0024648B90B21624BBDF824201970109933
S214009BE0FEF74AFB21E702226368C3F30F236B806C
S214009BF001265B4B207969881E70587059801A714F
S214009C00CCE7B4F80500FDF7B5F990B1037B1A0769
S214009C1011D5A9F1030292B25249B4F80500FDF736
S214009C20F7F902460028DFD113214D4B1970014683
S214009C30D6E70122D8E70322D6E7A9F1050B1FFADB
S214009C408BFBBBF1020F02D0BBF1100F7CD1464B51
S214009C50B4F80500B4F8071010930023CDE90033DC
S214009C608DF844B010AB0CCBFDF71AFE4FF6FF7321
S214009C70984206463FF45BAF2B882CAA043B22F89A
S214009C80963D09A9FDF79EF9024608B16E80AFE73A
S214009C900921334BBDF81A201970911C59705E804B
S214009CA0099923E7A9F1050B1FFA8BFBBBF1020FFD
S214009CB002D0BBF1100F47D10027B4F80500B4F866
S214009CC00710DFF8A4A0CDE900775FFA8BFBCDF88C
S214009CD040A08DF844B010AB0CCBFDF7E1FD4FF67D
S214009CE0FF79484506463FF422AFCDE90077CDF828
S214009CF038A08DF83CB001300EAB0CCB494680B294
S214009D00FDF7CEFD07462B8848452CAAA3F106038F
S214009D1018BF00F1FF3722F8963D09A9304618BF54
S214009D20BFB2FDF74FF902460028AFD111210C4B08
S214009D30BDF81A201970111D59705E809F80099910
S214009D4005204DE7042253E7024651E7074B10A9CA
S214009D5010930223CDE912771193FEF765FA64E6B5
S214009D60C6010020F7010020F901002010000020A5
S214009D70FEE7000008B5FFF7B3F9064A064B0749A9
S214009D808B4201D3FCF7FCF952F8040F43F8040B9E
S214009D90F6E700BF5436010010000020FC0000204B
S214009DA038B50446054D00F0E9FA0FCC0FC594E827
S214009DB0030085E80300002038BD00BF802800208F
S214009DC047F6FF739A42F0B552D0022952D82A4B72
S214009DD0CE0013F831109819012984780DD1C37874
S214009DE01B1B23B1416831F91310914202DCE018C5
S214009DF0C0B2F0BD013B1BB2F3E740680028F8D0C4
S214009E00B0F90050954204DBB0F902509542B8BF55
S214009E1015462821A5F1C80292FBF1F233445B787F
S214009E205242591E12B28A42A8BF0A464FF47A77A7
S214009E3000EBC206F188B668013215FB016112B26A
S214009E4021EAE17101F5FA719A42B1FBF7F104DA01
S214009E5000EBC206B6888E42EAD200EBC20232F8A7
S214009E60040C884228BF0846A04238BF2046BFE7F9
S214009E70FF20BEE70020BCE78028002070B50E4615
S214009E80044678B1084D2B7863B9084B186000F08B
S214009E9035F83146204600F021F8031C18BF012390
S214009EA02B7070BD0020FCE79C280020982800201E
S214009EB00846114600F036B800B10C3001F024BB5D
S214009EC000B10C3000F01FBA7047431E012B03D9B7
S214009ED0031F5842584170470120704738B5044662
S214009EE00D46002100F01EFA2946204601F094F99E
S214009EF000280CBF2046002038BD000010B50446E0
S214009F0000F0CAFB44B1054AD4F88030002B08BFE5
S214009F101346034A136010BD636FFFDEC99E000040
S214009F201800002010B50C4600F0D8FB1CB100F05D
S214009F3033FC0128FBD110BD00B10C3000F060BD31
S214009F4000B10C3000F074BD00B10C3001F0CAB99D
S214009F502DE9F04FDFF8709185B004468B46164623
S214009F608DF80F3001F0BEFBB9F8005001F0C8FBC9
S214009F7000283CD1524F002E3ED0386000F00CFC3A
S214009F80012865D1DFF844A1A26EDAF80030E06E51
S214009F90002B65D0934266D01D68116802680DB12B
S214009FA08D426FD0204601F08FF80122002305462F
S214009FB0CDE90123D4F87C80B8F1000F72D00022DE
S214009FC00DF10F0311462046C0474DBBD4E91A23B6
S214009FD0CAF800203B60E6B9029B002B59D1019BD2
S214009FE0002B56D10025284605B0BDE8F08F00238B
S214009FF0334F3B6001F07CFBE36E3A689342BDD181
S21400A000002BBBD05D45EDD000F0C6FB0128B9D0D3
S21400A0101EE03146C9F800B0204600F015FE0546A1
S21400A0200EB9019B83B1B5FA85F03321400900F0E3
S21400A030FDF99DF80F10204601F052F8214BE16E15
S21400A0401B68A4F10C009847284605B0BDE8F08FC1
S21400A050012000F043FB00F09FFB0128FBD191E7B5
S21400A060116802689EE73968002995D0814293D12D
S21400A070B5EB0B024FF0000318BF012201930292CA
S21400A0801D4697E7396811B10968914205D05968AD
S21400A09088E7C9F800B00199BEE701230025CDE99D
S21400A0A0013587E7217994F8B8309DF80F2099425A
S21400A0B028BF1946204600F066FD002DB0D185E782
S21400A0C0A828002018000020A0280020A42800208F
S21400A0D02DE9F04F074683B00E46FDF713FEFB6EE4
S21400A0E0814613B13B89B3424AD0BB6E002B55D094
S21400A0F09C68002C52D0D96800294FD0D7F87CA095
S21400A100BAF1000F52D04FF00008A7F10C0B4046F2
S21400A110454600E09C6805EB450204EBC204E28974
S21400A1200135B24217D8228AB24214D3B4F91210BB
S21400A130B7F92A010193884201EAE17217DD97F820
S21400A140AC105846FFF73CFE3A79804682420ED95C
S21400A1502046019BD9688D42DCD338B90124484695
S21400A160FDF750FE204603B0BDE8F08F04460023FE
S21400A170224619463846D0473E81FC6687F8B880A6
S21400A180002331461A463846FFF7E2FE04464846A4
S21400A190FDF738FE204603B0BDE8F08F032448469E
S21400A1A0FDF730FE204603B0BDE8F08FD04650469F
S21400A1B0554647F6FF7BA7F10C0A0EE097F8AC1061
S21400A1C05046FFF7FDFD3A7980468242D4D92046B4
S21400A1D0019BD968A94215D99C6805EB450204EB9A
S21400A1E0C204E2890135B242F4D8228AB242F1D3DF
S21400A1F0B4F912100193594501EAE172DED14FF02D
S21400A200FF08B9E70028A9D00446B5E7F8B50D1C45
S21400A21018BF01250E46074600241F21284600F0D9
S21400A22005F9304601F066FF1F21284687F8C8402A
S21400A230C7E91A6400F0FAF84FF6FF721820F168C2
S21400A240E3B28B420BD3154600230A4A2946136015
S21400A250094A38461360FFF73BFF2846F8BDB56845
S21400A26000FB0353DD89954202D2002DECD02A462E
S21400A2700134E5E7A4280020A828002000897047BC
S21400A2800A7838B505461046FFF71FFE60B14C78D1
S21400A2902046FFF71AFE38B12243530704D4284657
S21400A2A0BDE8384000F0F2BB012038BD00B10C30EC
S21400A2B0FFF7E6BF10B504460878FFF706FE58B16C
S21400A2C04A781046FFF701FE30B1042A04D0204633
S21400A2D0BDE8104000F002BC012010BD00B10C30FB
S21400A2E0FFF7E8BF30B4DDE9024500B10C30CDE938
S21400A2F0024530BC00F080B9084601F0A9BB00B1A9
S21400A3000C3000F0EFBA70B504460D461646FFF75F
S21400A310DFFE30B9324629462046BDE8704000F0E0
S21400A32083BA70BD01F0F4B938B5044600200D4676
S21400A33001F0DEFE4CB1D4F8883043B9294604F16A
S21400A3400C00BDE8384000F03DBCE36FFFDE0220A5
S21400A35038BD38B5044648880D4601F0C9FE4CB1F4
S21400A360D4F8883043B9294604F10C00BDE83840DB
S21400A37000F0E4BBE36FFFDE022038BD01F0B9BE9B
S21400A38038B505460C46FDF7BDFCA9696B690C405F
S21400A39023436B61FDF736FD00200CB9002138BD64
S21400A3A08021FCE700B10C3000F0DBBD00B10C30C2
S21400A3B000F0F4BD4FF4007307B502AA22F8023D80
S21400A3C00749FFF7F3FFBDF80630B3F5007F05D168
S21400A3D0022808BF002003B05DF804FB0120FAE75E
S21400A3E0AC2800200846114600F0E6BC00B10C3050
S21400A3F000F0A2BD38B5154658B100F10C0411B1F5
S21400A400204600F0E5FD35B12046BDE8384000F0B6
S21400A41031BE0446F3E738BD024B1960024B1860A4
S21400A420FEE700BF1C0000202000002008B528B969
S21400A430034B1960034B1868FFF7EEFF08BD00BF1B
S21400A4401C00002098280020034618B15B7B0C30C7
S21400A45013B108475B78FFDE0220704710B504464C
S21400A46001F0A6F92046BDE81040032100F020B90F
S21400A47000B10C30FFF7F2BF0149FFF7E5BF00BFA0
S21400A48089B700000149FFF7DFBF00BF61B70000D2
S21400A49070B51E46437805461446D3B191FAA1F12D
S21400A4A0080A00F049FBE30703D5284601F0AEF999
S21400A4B068B1AA20214601F0B7F99DF81020442083
S21400A4C082F00102314601F031FA002070BD5520BD
S21400A4D0F0E70220FAE710B49DF804400C3001942F
S21400A4E05DF8044BFFF7D4BF024BD868C0F3036097
S21400A4F0704700BF000002A87047000038B16FF038
S21400A500FF02034B10401A60A3F580531860704793
S21400A51024E000A8C2690F4B02F06002402A12D065
S21400A520602A04D0202A12D10122DA6107E071B134
S21400A5300A68012A0BD94A6942F00102DA618022D0
S21400A540054B1A61704740F20112DA61F7E7002204
S21400A550DA61F4E7484F00B0000002A8F7B50646F7
S21400A5600C46174D39B90A46072104F0A7FBC5E982
S21400A570004403B0F0BD0727124B02A81F600B79FA
S21400A5802B704B79012140F8043D04F0B3FB019B8E
S21400A590C2B2D34000F00F0040EA03106870A379FF
S21400A5A0094AAB70E3793946EB70236830466B6036
S21400A5B02379013313623A4604F080FBD9E700BFE3
S21400A5C0404F00B00C6000A8004000A800F0180340
S21400A5D0182B084B02D100221A627047010702D5D9
S21400A5E001221A627047C206F5D540F201121A62BD
S21400A5F0704700BF484F00B02DE9F34BDDE90A670E
S21400A600D0E938890446002588EA060089EA070169
S21400A61001EA030C00EA020B8CEA09018BEA080047
S21400A620C4E9380122F0010006EA000807EA030937
S21400A6301946CDE9005549F0800348F0004203F082
S21400A64009FA2378DB0720D5D4E93823002003F065
S21400A650800150EA010318D04FF480312046FFF7FE
S21400A6608FFE237865F300032370D4E9382302EACB
S21400A670000503EA010655EA060306D005492A4600
S21400A68009683346A4F10C008847002002B0BDE8F4
S21400A690F08B00BF24000020034A0368002B08BF8D
S21400A6A01346024A13607047F9A4000024000020F5
S21400A6B031F00F0003BF054A01F00F01D3680120F7
S21400A6C002BF23F00F030B43D3607047484F00B020
S21400A6D0014B002019617047484F00B02DE9F34147
S21400A6E003284BD8DFE800F046023E42002401264D
S21400A6F02546FDF707FB074603F084FB804640B17E
S21400A70000230022CDE9003301200023002103F0BE
S21400A710A1F92946304603F00FFD22462946304669
S21400A72003F06EFDB8F1000F16D0164B1B6803B190
S21400A7300C33154A126C520208D4DB6913F0800FF2
S21400A7404FF4001314BF114A114A136011490868E8
S21400A750FFF7D4FE00230B60384602B0BDE8F04198
S21400A760FDF750BB012500242E46C2E701242546EE
S21400A7702646BEE7002425462646BAE702B0BDE8D0
S21400A780F08100BF98280020000002A8205001A8F1
S21400A790206001A8C82A002008B5FFF7A5FE0138EA
S21400A7A00B280DD8DFE800F014140614141414084F
S21400A7B00A080808032008BD0420FCE70520FAE77D
S21400A7C0044B5B6913F0060F14BF04200120F2E768
S21400A7D00220F0E700C001A8034B1B6C13F0A00F8B
S21400A7E00CBF012000207047000002A810B50246EA
S21400A7F0FFF7D2FF012813D1C1F159047F2C0EDCDC
S21400A8009170FDF77FFA074AE402136A04F4FF2406
S21400A81023F4FF231C431462FDF7F4FA002010BD56
S21400A8200220FCE700C000A8114603F035BB00007C
S21400A8300138C0B202284FF060518EBF00220D4B87
S21400A84053F820200C4B00201960A3F580531A60A3
S21400A8504FF400124FF080511A60084A936F23F0AD
S21400A860060343F004039367054B19600423C2F8FC
S21400A8708C307047A4FE0000206001A8004000A8AD
S21400A8804C1002A8114B1B7813B10622104B1A600D
S21400A8900022104BC3F88C204FF0805203F5F033A3
S21400A8A04C331A600C4B1B6C13F4800F0B4B08D107
S21400A8B0C26912F0800F4FF4001216BF08491A60E2
S21400A8C00A604FF0605200201A607047B02A0020DD
S21400A8D0786000A8004000A8000002A8206001A838
S21400A8E0205001A870B51546C269064682EA0503DF
S21400A8F00B405340C36108070C4606D5082315F0E5
S21400A900080F14BF334A344A1360E10706D5012303
S21400A91015F0010F14BF2F4A2F4A136062070CD59B
S21400A92003F0F2FB4FF4007315F0040F14BF2B4A2C
S21400A9302B4A136004222B4B1A60A30706D502236A
S21400A94015F0020F14BF234A234A1360E00606D50B
S21400A95015F0100F14BF00221B22234B5A65210648
S21400A9601ED52A0625D54FF40012204B1A60012268
S21400A97003F587531A60FDF7C5F90146FFF7B4FDE6
S21400A980032806D11A4AD36823F0F00343F0E00305
S21400A990D36040F20122144B0846DA62FDF732FA21
S21400A9A014F0600F03D0316F3046FFF7B3FD002080
S21400A9B070BD104B1B6C5B02F2D44FF4001196F87E
S21400A9C088300D4A1160002BEAD001220B4B1A602A
S21400A9D0E6E700BF4C5000A84C6000A8245001A831
S21400A9E0246001A8402002A8004000A8205001A82A
S21400A9F0484F00B0000002A8206001A8005101A83E
S21400AA00014B186A02F0B6BA004001A8036F53B1B2
S21400AA101A68022A07D9586AC0F3072030B11B6AA1
S21400AA20B3FBF0F070470C38FFF786BA70470000AB
S21400AA30014B186A02F0C6BA004001A8026F62B164
S21400AA401368022B09D9536AC3F3072040B1126A70
S21400AA50DBB25343B3FBF0F070470C38FFF770BA25
S21400AA6070470000064BD3F838311B0401D4FFF7BB
S21400AA70E5BF0A78034B0448012A18BF18467047FA
S21400AA80004001A820A1070048E80100F8B5114DD4
S21400AA900F784C782E68FDF735F902460E49FFF719
S21400AAA023FD0B2808D00C2801D0092807D1104612
S21400AAB0FDF7A8F90220F8BD0B6CDB03EFD42406E3
S21400AAC0B3B244EA07441C4310462C60FDF79AF9DB
S21400AAD00020F0E7F44E00B0000002A8F8B5144ECF
S21400AAE00C784F783568FDF70DF902461149FFF7E7
S21400AAF0FBFC033808280FD8DFE800F0050E050534
S21400AB000E0E0E0E0A001046FDF77CF90220F8BD68
S21400AB10D1F84431002BEAD12B0C1B041C4344EA29
S21400AB20072410463460FDF76DF90020EFE700BFFC
S21400AB30F44E00B0000002A802F0A2BA70B50446B7
S21400AB4000F1AC060868C4F8AC008B880846A4F888
S21400AB50B0308B88C4F83C31FF23637101F0EEFA05
S21400AB60054670B9304601F0CFFA054648B920468A
S21400AB7001F062FB0121A4F8B00004F1800002F0AD
S21400AB802FFD284670BD38B5054690F8AC000C463B
S21400AB90032813D0FF2913D001F040FBA04204D8AD
S21400ABA095F8AC0001F03AFB04466C71204601F0C3
S21400ABB047FCA0F1FF035842584138BD0220FCE78D
S21400ABC00120FAE738B590F8AC300446032B37D0AE
S21400ABD0C56E01718DB3C36F1BB990F8B8308B4248
S21400ABE005D3B4F92A21B5F912309A4211DD0022B4
S21400ABF094F8B8102046FFF7C6FF0546D8B9E066B9
S21400AC002046FFF73BFB01462046BDE83840FFF7ED
S21400AC105FBA00222046FFF7B6FF054658B9094B33
S21400AC201B78012B07D8204601F006FB012104F112
S21400AC30800002F0D5FC284638BDFF234371FAE7B2
S21400AC400225F8E7320000202DE93048436A86B036
S21400AC50012B6ED004464E4901F074FF01230022FA
S21400AC60E56E84F8B430A989238920675B1A9BB205
S21400AC70D5E9011505FB0311464DC4F8BC102D6837
S21400AC80A4F8C430A842C4F8C02017D058B103684E
S21400AC904BB103693BB19968D3E90023C4F88C1023
S21400ACA0C4E9202304E00023C4E92033C4F88C3030
S21400ACB001462046FFF72EFCD4E92F1201AB2046B2
S21400ACC002F020FA00282FD1334AFFF70DFC013896
S21400ACD00B28FAD9536913F0060FF6D12F4A3049DC
S21400ACE0136CDD01FCD40B6CD807F9D401A904F170
S21400ACF0BC0002F07BFB0546B0B9B4F8C420294B73
S21400AD0029491A642378E26E60F3000323700B6807
S21400AD10526911685A1C11D0481C1ED08B1C04D0D6
S21400AD20204600F059FE00E00225284606B0BDE8A1
S21400AD3030880025284606B0BDE830884A1CEDD18C
S21400AD40D4E93823002003F0800150EA010309D13A
S21400AD50237843F001032370E7E71946204600F006
S21400AD603BFEEDE74FF480312046FFF709FBD4E9C0
S21400AD70382302EA000B03EA010C5BEA0C03D4D08A
S21400AD800A495A466346A4F10C0009688847CCE78E
S21400AD90FC4F00B0BC2A002000C001A8000002A89A
S21400ADA000C002A8008001A8400000202400002067
S21400ADB04FF4807103F094BF37B50DF106020D46CF
S21400ADC001F0D8F8044688B185B12B7813F0F70F58
S21400ADD00CD0FCF797FF074BBDF806201C60064B0F
S21400ADE01A806A88054B1A80FDF70CF8204603B0D7
S21400ADF030BD00BFB42A0020B82A0020B22A0020A6
S21400AE002DE9F74306461546084619B9012003B052
S21400AE10BDE8F083002AF9D0032905D800221146A0
S21400AE2001F0A8F80028F1D0038882781C0402F00C
S21400AE3007017BD4A1F1070C077990F80580C48838
S21400AE40DCF1000040EB0C000529287394BF0020BD
S21400AE50C2F300106873C2F380102874C2F3C000F7
S21400AE60C2F340126874AA745FBB96F8A620013A33
S21400AE70EA74F269D20653D40639012950D82C4A0E
S21400AE80063B526D9BB2062269462A4800F0E1FE58
S21400AE90E3049DF9007017D49DF801004400E0B269
S21400AEA0B36F0BB139469847E873AF736A7CDDF829
S21400AEB00210304602F0AEFC012328602B72002000
S21400AEC0A5E7013FEF74D4E7336FC4F30B04E40047
S21400AED093B11A68022A0FD95B6A13F0FF0301D0F8
S21400AEE0B4FBF3F4A04517D8C4B1C8EB0828B8FBE8
S21400AEF0F4F4E443E0B2D3E73046FFF787FD05F10C
S21400AF00110181463046FFF7ADFD0028EAD009FB67
S21400AF1004F4B4FBF0F4E5E70020C1E72046BFE701
S21400AF20002080232860EB81287270E702206EE7FD
S21400AF30004000A84C0000AAF8B506461446177A4A
S21400AF40FFF75EFF054650B9237A43B104F11101BD
S21400AF5027723046FFF786FD214602F027FC28467A
S21400AF60F8BD0846114610F0030210B514D1B3FA26
S21400AF7083F3192B05D0C3F11902D2B2062A28BFD3
S21400AF8006220124931D9C40A4B2A14228BF21465C
S21400AF9000F0F4FD204610BD0124FBE7084611F042
S21400AFA0030110B512D11388B3FA83F3192B05D019
S21400AFB0C3F11901C9B2062928BF062101238C1D39
S21400AFC0A340138000F0F8FD002010BD0120FCE730
S21400AFD001214FF02A43084AD3F8183191624FF402
S21400AFE0005102F5005224325B07116042BF042272
S21400AFF0024B1A60704700BF0C0000AA181100AA86
S21400B00038B54B7805460C46DBB9FFF73BFCA37812
S21400B010DBB940F6FF72144B5A62E378CBB940F6C0
S21400B020FF72124B5A62602203F17E4303F5A0437F
S21400B0301A60402203F5E73303F5FA731A6000201E
S21400B04038BD1846FFF7F4FBE1E72846FFF7C0FFD8
S21400B050E3E76022064B1A60402203F5D73303F578
S21400B060FA731A60EBE700BF0C0000AA4C0000AAB7
S21400B0704C6000A838B54FF02A434FF48064002097
S21400B080D3F8185103F5045318331C60064B1860A8
S21400B09003F088F84FF40052044B1A606A0544BF68
S21400B0A0A3F658731C6038BDB42A0020702000AA8E
S21400B0B0082310B1024A13607047024A13607047B3
S21400B0C0401002A8402002A810B5144608460121E8
S21400B0D001F0D8FE2046012101F0D4FE002010BD6C
S21400B0E04FF480624FF6FF7CF8B5374B374E056F4E
S21400B0F01A60D6F80431364AC3F381231370D6F8A3
S21400B10008318689C3F38123664504460F4653708B
S21400B11004D0304B1B680BB1314698472E4E33682F
S21400B120AB4248D02D4B1B6833B1002D45D0296863
S21400B13001B1A96820469847236F13B11A68022AFE
S21400B14017D8A4F10C00FEF7FBFE02F09FF90725C6
S21400B150204601F071F847B3214B93F84720A2B977
S21400B16006200122246F1F491F4B346008601A70A6
S21400B170F8BD5A6AC2F307200028E6D01B6AD2B28E
S21400B18002FB03F2B2FBF0F0DFE7104A93F844301C
S21400B190D2F80C01C0B2FF2813D098422CBF002072
S21400B1A001203C21FFF742F9DAE7294604F1800046
S21400B1B002F016FAD0E70125CAE729462046984746
S21400B1C0BAE70120EDE700BF4C2002A8004000A827
S21400B1D0C02A0020C42A0020BC2A0020AC2A002056
S21400B1E0F84E00B0786000A8B02A00204FF4801314
S21400B1F00021064A06481360064AC2F8CC1002F53B
S21400B200025234321360482204F00BBDB86000A826
S21400B210F84E00B0004000A82DE9F34188460446E9
S21400B220002857D003234FF0641280F8B8304FF64A
S21400B230FF73C0E92822C0F8A820284A4FF0FF373D
S21400B2408374A0F83231038313804FF04023C0F894
S21400B25048710782D3F8843000F10C0603F0C0036F
S21400B260802B35D1304602F0D5FD3046FFF7BEFFC5
S21400B27060221B4B04F5AA71DA643046FFF7C0FE65
S21400B280A26A054639463046FFF72CFB0E234FF0E0
S21400B2900042CDE9003380231046194602F0DAFB5F
S21400B2A000F096FF85B92046FFF784F8054658B9A2
S21400B2B094F90E103046FFF799FA0546B8F1000FDC
S21400B2C002D008B92046C047284602B0BDE8F08143
S21400B2D00225F9E784F8AC00FFDE00BFCC2A002088
S21400B2E0004000A870B50C46054600F180060988A7
S21400B2F0943002F059F96188208005F19C0002F034
S21400B30053F9A188608005F19A0002F04DF9E188B2
S21400B310A08005F1980002F047F92189E0803046C8
S21400B32002F04EF961892081304602F051F907217A
S21400B3306081304602F054F9002070BD4FF6FF726F
S21400B340B0F82631934211D0094A0A49526E100CC1
S21400B350C2F301120132B3FBF2F30880064A074932
S21400B36007481B04086013600020704703207047DE
S21400B370004001A8CC2A0020645001A8646001A8FF
S21400B3800000FFFFF7B505460E461446FFF724FA01
S21400B390002800F09D804FF40061284603F0A0FCD2
S21400B3A038B14FF4007201214A4B08461A60FEF786
S21400B3B0B9FD31462846FEF78BFE0646002870D1BA
S21400B3C02B789B0601D4002C44D04FF44062424BAD
S21400B3D01A6014F0020204D1404B41491B789B02CC
S21400B3E00B604FF440613F4B196022B93B4B3E4A1D
S21400B3F05B789B02136002F087FE4FF4806314F0C4
S21400B400040F14BF394A3A4A324F136004224023CD
S21400B41014F0400F3A6014BF364A374A204613608D
S21400B420FFF7D4F82846FFF7C3FC38B14FF4807313
S21400B43014F0010F16BF314A3B601360A70602D511
S21400B4402846FFF77BFF003418BF01242B7864F3EF
S21400B45045132B70284600F063F9F8B12846FFF72D
S21400B460A7FCD8B14FF40031284603F039FC002879
S21400B4700CBF01230223032201A9214800F0E9FBA7
S21400B4809DF804101F4A01F00703052B9DF80530B0
S21400B49012D1080708D443F480735360002000F0EC
S21400B4A027FE304603B0F0BD59070BD49DF8063092
S21400B4B043F480735360F1E703F03001202904D190
S21400B4C0DB07F3D54FF48073F4E79DF80630F1E719
S21400B4D00226E6E7402002A8046100A8C02A002051
S21400B4E0045100A8086100A8085100A8245001A82B
S21400B4F0246001A888D000A888E000A8401002A810
S21400B5000C0000AAD44E00B073B506461D46FFF7E1
S21400B51039FF044688B995E803006A4682E80300C6
S21400B5209DF80430B6F89A10012B034607D18842DE
S21400B53005D20094104602F09BFD02B070BD5B1A67
S21400B5400093F7E74FF6FF71084A10B513888B4251
S21400B55009D00748074C1B040460A0F58050036020
S21400B5600020118010BD0320FCE700BFCC2A00207D
S21400B570646001A80000FFFF4C4B2DE9F3471C68F0
S21400B58081468A46154604B10C348021484801EAB3
S21400B5900A0300EA090213434BD0002309F00042D5
S21400B5A0134309D0434B1B6803F07F43B3F1007F7E
S21400B5B002BF0222404B1A60002309F00102134327
S21400B5C028D04FF000080022002300210120CDE9FA
S21400B5D0008802F03FFA012001F016FD4146608126
S21400B5E00120FEF79FFC354B1B6C5A0208D4E3691A
S21400B5F013F0800F4FF4001314BF314A314A136022
S21400B60031490868FEF77AFF00230B60237843F081
S21400B6100403237000220AF08003134309D001219B
S21400B6202046FEF7ADFE2AF0800749EA000947EA01
S21400B630010AD4E9382309EA02000AEA03010246AD
S21400B6400B46134306460F4616D0204BA4F10C00BB
S21400B65019683B468847002306F0080213431EBFBE
S21400B66000221B4B1A6008231A4A1F40164056EA4F
S21400B670070301D0FFF766FFEB070AD51649174AFE
S21400B68008680021136811600121154A117003B182
S21400B690984715F00E0F06D03B21002002B0BDE8FB
S21400B6A0F047FEF7C3BE02B0BDE8F087982800203A
S21400B6B001000080F44E00B0081002A8000002A8A6
S21400B6C0205001A8206001A8C82A002024000020DD
S21400B6D0B42A00200000C0BFD42A0020D02A0020B0
S21400B6E0CE2A0020014BD3F84C3170470080E00F83
S21400B6F04FF40022014B1A60704700BF402002A89A
S21400B700024B186CC0F3C040704700BF000002A890
S21400B710014B024A1A607047AC2A00205DA5000063
S21400B720802103F0DDBA000008B54378033BDBB2A6
S21400B730032B96BF084A0021D15CFEF7C9FF012003
S21400B74000F020FF4FF4F062044B1A604FF40072D2
S21400B750A3F580531A6008BDB0FE00004C6000A838
S21400B760012310B580F888302823A0F892300423EF
S21400B770044643700349FEF749FD2046FFF7D4FF11
S21400B780002010BDB8340100012310B580F88830C1
S21400B7902823A0F892300223044643700349FEF79C
S21400B7A035FD2046FFF7C0FF002010BDC42F010066
S21400B7B038B5124D0446286801F036FBAB681868A9
S21400B7C001F032FB0E4BDA681AB19B68186801F07C
S21400B7D02BFB0C4BDA6842B19B68186801F024FB1F
S21400B7E0094B9B68186801F01FFB2046FFF7CCFF4B
S21400B7F02046BDE83840FFF797BF00BFC42F0100C2
S21400B800B8340100B42C01003C2E01004078053805
S21400B81001288CBF00200120704700000022014B49
S21400B8201A707047D82A0020374B70B51A781AB1AC
S21400B830364A926E8A4265D001221A70344A01F066
S21400B840030383F0010313449C780D461E2305F082
S21400B8500706965D013B34444FEA5505F7D14FF095
S21400B86000722C4B55281A6047F6FE72A3F52E433D
S21400B870A3F110031A60284B03FB04F36FF48174E2
S21400B8804FEA934323444FF00F0402EA4303234A4C
S21400B89013601E4B9966C2F8344E0CBF0124022476
S21400B8A0A2F5E672146091FAA1F190FAA0F04FF0BA
S21400B8B0FF32D3F838311B045EBF4B08000F43EA53
S21400B8C0C070174B48BF17481A604FF0F042A3F5F8
